:100000000C9462000C948A000C948A000C948A0070
:100010000C948A000C948A000C948A000C948A0038
:100020000C948A000C948A000C948A000C948A0028
:100030000C948A000C948A000C948A000C948A0018
:100040000C94E6010C948A000C948A000C948A00AB
:100050000C948A000C948A000C948A000C948A00F8
:100060000C948A000C948A000000000024002700F1
:100070002A0000000000250028002B0000000000DE
:1000800023002600290004040404040404040202DA
:100090000202020203030303030301020408102007
:1000A0004080010204081020010204081020000012
:1000B0000008000201000003040700000000000027
:1000C0000000BF0311241FBECFEFD8E0DEBFCDBFBD
:1000D00011E0A0E0B1E0E4E2F8E002C005900D928A
:1000E000A232B107D9F721E0A2E2B1E001C01D922E
:1000F000AA39B207E1F710E0C2E6D0E004C02197C8
:10010000FE010E940A04C136D107C9F70E943002DD
:100110000C9410040C94000096E0899FD0011124E7
:10012000A55DBE4F90967C936E935F9791E09196FC
:100130009C939197E0919801F0919901909197018A
:10014000992339F0309751F0811108C0809147010F
:100150000994309719F05C968C91FACF0895CF925C
:10016000DF92EF92FF920F931F9396E0899FF00129
:100170001124E55DFE4F11A2278D30A121303105FC
:1001800051F178F02230310509F451C023303105A6
:1001900009F452C01F910F91FF90EF90DF90CF9024
:1001A00008956623B9F361E070E00E948C002FB7D8
:1001B000F8948091270190912801A0912901B09194
:1001C0002A012FBF8093830190938401A09385011E
:1001D000B0938601DFCF9FB7F894C0902701D090ED
:1001E0002801E0902901F0902A019FBF009183012E
:1001F000109184012091850130918601C01AD10AA5
:10020000E20AF30A009195011091960130E020E096
:100210000C151D052E053F0550F462E070E01F919E
:100220000F91FF90EF90DF90CF900C948C006111B4
:10023000B1CF63E070E0F3CF70E060E0F0CF8330E7
:1002400081F028F4813099F08230A9F00895873048
:10025000A9F08830C9F08430B1F4809180008F7D9E
:1002600003C0809180008F7780938000089584B5CB
:100270008F7784BD089584B58F7DFBCF8091B000CA
:100280008F778093B00008958091B0008F7DF9CF73
:10029000CF93DF93282F30E0F901E255FF4F84918F
:1002A000F901E656FF4FD491F901EA57FF4FC49187
:1002B000CC23A1F081110E941F01EC2FF0E0EE0F82
:1002C000FF1FE458FF4FA591B491EC91ED2381E01D
:1002D00090E009F480E0DF91CF91089580E090E014
:1002E000FACF1F93CF93DF93282F30E0F901E25527
:1002F000FF4F8491F901E656FF4FD491F901EA5777
:10030000FF4FC491CC23A9F0162F81110E941F0129
:10031000EC2FF0E0EE0FFF1FEE58FF4FA591B491C8
:100320008FB7F894EC91111108C0D095DE23DC93BF
:100330008FBFDF91CF911F910895DE2BF8CFCF9320
:10034000DF9390E0FC01E656FF4F24918A579F4FC0
:10035000FC0184918823C9F090E0880F991FFC016B
:10036000E859FF4FA591B491FC01EE58FF4FC5919C
:10037000D49161110DC09FB7F8948C912095822380
:100380008C938881282328839FBFDF91CF91089584
:10039000623051F49FB7F8943C91822F809583236B
:1003A0008C93E8812E2BEFCF8FB7F894EC912E2B06
:1003B0002C938FBFEACF862F642F0C949F01862F3A
:1003C000642F0C947101862F0C9448011F920F9298
:1003D0000FB60F9211242F933F938F939F93AF9358
:1003E000BF938091270190912801A0912901B0919C
:1003F0002A013091260123E0230F2D3758F501966D
:10040000A11DB11D209326018093270190932801FF
:10041000A0932901B0932A01809122019091230198
:10042000A0912401B09125010196A11DB11D8093D9
:10043000220190932301A0932401B0932501BF9141
:10044000AF919F918F913F912F910F900FBE0F9081
:100450001F90189526E8230F0296A11DB11DD2CF3B
:10046000789484B5826084BD84B5816084BD85B58F
:10047000826085BD85B5816085BD80916E0081609B
:1004800080936E0010928100809181008260809341
:100490008100809181008160809381008091800043
:1004A0008160809380008091B10084608093B1006E
:1004B0008091B00081608093B00080917A00846068
:1004C00080937A0080917A00826080937A00809194
:1004D0007A00816080937A0080917A0080688093AE
:1004E0007A001092C1008FE084B9812C912C5401C4
:1004F000839422242A94322C50E0652E50E0752EED
:1005000051E0509397018FB7F89440912701509193
:1005100028016091290170912A018FBF8091870184
:1005200090918801A0918901B0918A01481B590BD3
:100530006A0B7B0B8091930190919401B0E0A0E055
:1005400084179507A607B70708F012C1C0E080918D
:100550009101C81760F4E0918D01F0918E01EC0FCC
:10056000F11D62E080810E949F01CF5FF0CF512C8E
:1005700080919201581608F05FC0052D10E0E091BF
:100580008F01F0919001E00FF11F61E080810E94E6
:100590009F01E0918F01F0919001E00FF11F60E069
:1005A00080810E947101D501C401052C04C0880F0F
:1005B000991FAA1FBB1F0A94D2F76C017C01E0941B
:1005C000F094412C809191014816F8F4C42DD0E0AC
:1005D000E0918D01F0918E01EC0FFD1F80810E9452
:1005E00048012496CC0FDD1FC55DDE4F892B41F4F9
:1005F000888199818C299D29998388834394E2CFAE
:10060000888199818E219F21F7CFE0918F01F09110
:100610009001E00FF11F61E080810E9471018091E3
:100620008F0190919001080F191F60E0F8018081FF
:100630000E949F0153949CCFCBE2D1E0FE01878DB5
:1006400090A1892B21F4148E368E258E11A2369618
:1006500051E0E736F50799F710E0809191011817FE
:1006600008F053C000E0E12EF12CEE0CFF1CC70196
:100670008D5C9E4F7C0120919201021708F043C0CF
:10068000F70160817181002E02C0769567950A940A
:10069000E2F7129F90011124200F311DEBE2F1E0EF
:1006A00080E0458D568D2417350709F466C08F5FAD
:1006B00036968A30B1F760FF24C0EBE2F1E090E0BB
:1006C00080E0448D411118C0E0918B01F0918C01C4
:1006D000E20FF31F408156E0589FF001599FF00D43
:1006E0001124E55DFE4F448F368F258F10A2178EA3
:1006F00061E00E94AF0005C0019636968A309105F0
:1007000001F70F5FB8CF1F5FA8CF80E099A19111CB
:10071000892F269691E0C736D907C1F79FB7F8947D
:1007200040912701509128016091290170912A017F
:100730009FBF409387015093880160938901709314
:100740008A018823A9F080914C01882389F0809147
:100750004A0190914B01019759F480914701811111
:100760000AC06114710409F4CBCE0E940000C8CE07
:1007700010929701F6CF85B9F4CF6170BACF10927D
:100780002D011092310110923001109232018CE152
:1007900091E090932C0180932B01E7E4F1E010822B
:1007A000148213821582369681E0E338F807B9F790
:1007B00084E091E090938E0180938D0180E091E040
:1007C0009093900180938F0184E0809391018093B6
:1007D000920188E091E090938C0180938B018AE0F4
:1007E00090E0909394018093930184EF91E0909333
:1007F00096018093950110929901109298011092A0
:100800008701109288011092890110928A0110923A
:1008100097010895EE0FFF1F0590F491E02D0994C4
:04082000F894FFCF7A
:1008240007060504030201000102030A0405060B7E
:100834000708090C0F100E0D00000000DB01DF019A
:02084400E301CE
:00000001FF
