:100000000C9462000C94EF020C94C8020C948A00C9
:100010000C948A000C948A000C948A000C948A0038
:100020000C948A000C948A000C948A000C948A0028
:100030000C948A000C948A000C948A000C948A0018
:100040000C947E020C948A000C943C030C941603CE
:100050000C948A000C948A000C948A000C948A00F8
:100060000C948A000C948A000000000023002600F3
:10007000290000000008000201000003040700003E
:1000800000000000000000000000250028002B00F8
:1000900000000000240027002A00040404040404D3
:1000A0000404020202020202030303030303010227
:1000B00004081020408001020408102001020408F6
:1000C0001020320411241FBECFEFD8E0DEBFCDBF19
:1000D00011E0A0E0B1E0EEECF8E002C005900D9276
:1000E000AA32B107D9F721E0AAE2B1E001C01D921E
:1000F000A23DB207E1F710E0C2E6D0E004C02197CC
:10010000FE010E945F04C136D107C9F70E946E0349
:100110000C9465040C940000CF93DF9390E0FC01F5
:10012000E255FF4F249186569F4FFC01849188230E
:10013000C1F090E0880F991FFC01E057FF4FC59177
:10014000D491FC01EA57FF4FA591B4919FB7F89461
:100150008881E22FE0958E2388838C91E823EC93AD
:100160009FBFDF91CF91089590E0FC01EE58FF4FC3
:100170002491FC01E255FF4F3491FC01E656FF4FFC
:10018000E491EE23C1F1222339F02330E9F090F419
:10019000213001F1223011F1F0E0EE0FFF1FE8599C
:1001A000FF4FA591B491EC91E32381E090E029F514
:1001B00080E008952730A9F02830C9F0243061F795
:1001C000809180008F7D03C0809180008F77809325
:1001D0008000E2CF84B58F7784BDDECF84B58F7D7C
:1001E000FBCF8091B0008F778093B000D5CF809106
:1001F000B0008F7DF9CF80E090E0089510922A0141
:1002000083E00E94B40090912A01892B80932A01F7
:1002100084E00E94B40020912A01880F991F282BA6
:1002200020932A0185E00E94B40020912A01880FC2
:10023000991F880F991F282B20932A0186E00E947E
:10024000B40020912A0153E0880F991F5A95E1F7D5
:10025000282B20932A0187E00E94B40020912A01D4
:1002600064E0880F991F6A95E1F7282B20932A01F3
:1002700088E00E94B40020912A0175E0880F991F40
:100280007A95E1F7282B20932A0189E00E94B40097
:1002900020912A01E6E0880F991FEA95E1F7282BC3
:1002A00020932A018AE00E94B40020912A019695A9
:1002B000982F882797958795282B20932A0181E0EE
:1002C00080932B0108950895AF92BF92CF92DF9251
:1002D000EF92FF920F931F93CF93DF936C017B01FB
:1002E0008B01040F151FEB015E01AE18BF08C0178C
:1002F000D10759F06991D601ED91FC910190F081FF
:10030000E02DC6010995892B79F7C501DF91CF91C1
:100310001F910F91FF90EF90DF90CF90BF90AF9023
:100320000895FC01538D448D252F30E0842F90E0FB
:10033000821B930B541710F0CF96089501970895E0
:10034000FC01918D828D981761F0A28DAE0FBF2FA9
:10035000B11D5D968C91928D9F5F9F73928F90E0FF
:1003600008958FEF9FEF0895FC01918D828D98176E
:1003700031F0828DE80FF11D858D90E008958FEFAB
:100380009FEF0895FC01918D228D892F90E0805C74
:100390009F4F821B91098F739927089585E391E000
:1003A0000E94C20121E0892B09F420E0822F0895E8
:1003B00080E090E0892B29F00E94CE0181110C94FD
:1003C00000000895FC01A48DA80FB92FB11DA35AF8
:1003D000BF4F2C91848D90E001968F739927848F65
:1003E000A689B7892C93A089B1898C918370806488
:1003F0008C93938D848D981306C00288F389E02D29
:1004000080818F7D80830895EF92FF920F931F93D9
:10041000CF93DF93EC0181E0888F9B8D8C8D9813B7
:100420001AC0E889F989808185FF15C09FB7F894C3
:10043000EE89FF896083E889F9898081837080640F
:1004400080839FBF81E090E0DF91CF911F910F915A
:10045000FF90EF900895F62E0B8D10E00F5F1F4F69
:100460000F731127E02E8C8D8E110CC00FB607FC78
:10047000FACFE889F989808185FFF5CFCE010E9406
:10048000E201F1CFEB8DEC0FFD2FF11DE35AFF4F91
:10049000F0829FB7F8940B8FEA89FB898081806294
:1004A000CFCFCF93DF93EC01888D8823B9F0AA8951
:1004B000BB89E889F9898C9185FD03C0808186FD1F
:1004C0000DC00FB607FCF7CF8C9185FFF2CF80816E
:1004D00085FFEDCFCE010E94E201E9CFDF91CF9100
:1004E0000895FC0101900020E9F73197AF01481B06
:1004F000590BBC0185E391E00C9464011F920F92AB
:100500000FB60F9211242F933F938F939F93AF9326
:10051000BF938091310190913201A0913301B0914C
:1005200034013091300123E0230F2D3758F5019627
:10053000A11DB11D209330018093310190933201B0
:10054000A0933301B093340180912C0190912D013F
:10055000A0912E01B0912F010196A11DB11D809394
:100560002C0190932D01A0932E01B0932F01BF91E8
:10057000AF919F918F913F912F910F900FBE0F9050
:100580001F90189526E8230F0296A11DB11DD2CF0A
:100590001F920F920FB60F9211242F933F934F93F8
:1005A0005F936F937F938F939F93AF93BF93EF93DB
:1005B000FF93E0910201F09103010995FF91EF9102
:1005C000BF91AF919F918F917F916F915F914F916B
:1005D0003F912F910F900FBE0F901F9018951F9273
:1005E0000F920FB60F9211242F933F934F935F9367
:1005F0006F937F938F939F93AF93BF93EF93FF93EB
:10060000E0910001F09101010995FF91EF91BF91F7
:10061000AF919F918F917F916F915F914F913F919A
:100620002F910F900FBE0F901F9018951F920F9251
:100630000FB60F9211242F933F934F935F936F93B5
:100640007F938F939F93AF93BF93EF93FF9385E334
:1006500091E00E94E201FF91EF91BF91AF919F91D4
:100660008F917F916F915F914F913F912F910F905B
:100670000FBE0F901F9018951F920F920FB60F92FA
:1006800011242F938F939F93EF93FF93E091450154
:10069000F09146018081E0914B01F0914C0182FD87
:1006A0001BC0908180914E018F5F8F7320914F010D
:1006B000821741F0E0914E01F0E0EB5CFE4F958F28
:1006C00080934E01FF91EF919F918F912F910F9009
:1006D0000FBE0F901F9018958081F4CF789484B549
:1006E000826084BD84B5816084BD85B5826085BD2E
:1006F00085B5816085BD80916E00816080936E00BC
:1007000010928100809181008260809381008091AD
:10071000810081608093810080918000816080935E
:1007200080008091B10084608093B1008091B0001E
:1007300081608093B00080917A00846080937A0019
:1007400080917A00826080937A0080917A00816043
:1007500080937A0080917A00806880937A0010926A
:10076000C100E0914501F091460182E08083E09173
:100770004101F09142011082E0914301F091440166
:100780008FEC808310924D01E0914901F0914A0174
:1007900086E08083E0914701F0914801808180618B
:1007A0008083E0914701F0914801808188608083D7
:1007B000E0914701F0914801808180688083E09159
:1007C0004701F091480180818F7D808383E00E9402
:1007D0008C0084E00E948C0085E00E948C0086E002
:1007E0000E948C0087E00E948C0088E00E948C00B0
:1007F00089E00E948C008AE00E948C0082E00E94C6
:100800008C008EEF90E09093010180930001809125
:100810006900836080936900E89A86E191E00E9414
:10082000710289E291E00E94710287E291E00E94E8
:100830007102C0E0D0E080912B01882351F0F89440
:1008400060912A0110922B01789485E391E00E9437
:100850000402209781F30E94CE01882361F30E9455
:100860000000E9CFE5E3F1E01382128288EE93E025
:10087000A0E0B0E084839583A683B78388E091E00D
:100880009183808385EC90E09587848784EC90E069
:100890009787868780EC90E0918B808B81EC90E04D
:1008A000938B828B82EC90E0958B848B86EC90E02E
:1008B000978B868B118E128E138E148E0895EE0FE9
:0E08C000FF1F0590F491E02D0994F894FFCFEE
:1008CE006301630100000000040264019101510202
:1008DE00C201A001B40174657874206F75747075CF
:0A08EE00742056312E30000D0A0070
:00000001FF
